S00E00004865617465722E73726563BD
S11300000C942A000C9447000C9447000C9447006D
S11300100C9447000C9447000C9447000C94470040
S11300200C9447000C9447000C9447000C94470030
S11300300C9447000C9447000C9447000C94470020
S11300400C9447000C9447000C9447000C94470010
S11300500C94470011241FBECFE5D8E0DEBFCDBF0E
S113006010E0A0E6B0E0E2E5FCE002C005900D92ED
S1130070AE36B107D9F720E0AEE6B0E001C01D927C
S1130080A439B207E1F70E94AB030C9427060C9441
S1130090000041E065E081E00E948104089540E0B1
S11300A065E081E00E948104089541E065E081E01B
S11300B00E9410040E944F00089541E066E081E030
S11300C00E948104089540E066E081E00E9481047A
S11300D0089541E066E081E00E9410040E946300FC
S11300E0089541E00E9410040895442319F041301A
S11300F029F0089541E00E948104089540E00E949F
S113010081040895442319F0413029F0089540E012
S11301100E948104089541E00E94810408950E9490
S1130120F204089561E082E00E94610561E083E0E9
S11301300E94610541E067E082E00E94100441E012
S113014067E083E00E94100408956A3030F4E62FDB
S1130150F0E0ED59FF4F608101C060E0813019F09B
S1130160823051F0089582E00E94890540E067E002
S113017082E00E948104089583E00E94890540E0A2
S113018067E083E00E948104089540E00E94100427
S113019008950F931F93CF93DF931F92CDB7DEB7CC
S11301A08901442319F0413089F020C0AE014F5F2A
S11301B05F4F0E9426058981882329F08130B1F49C
S11301C0F801808313C0F801108210C0AE014F5FA4
S11301D05F4F0E9426058981882329F0813031F4FC
S11301E0F801108203C081E0F80180830F90DF9151
S11301F0CF911F910F91089562E670E080E090E046
S11302000E94A505809162008352893240F08CE3FC
S1130210809362006CE380E090E00E94990588B3CB
S113022067E00E9471000E9469000E9455000E94CC
S113023092008BB366E00E94C5008BB364E00E9419
S1130240C5008BB365E00E94C50080E00E94C40332
S11302500E94AE050E94B7050895CF93DF931F92C5
S1130260CDB7DEB7CE0101960E94C10589818130E8
S1130270A9F40E94CA058091810090918200A09106
S11302808300B09184000196A11DB11D809381006B
S113029090938200A0938300B09384000F90DF9129
S11302A0CF910895609181007091820080918300C4
S11302B0909184000895CF93DF931F92CDB7DEB75A
S11302C08BB39E012F5F3F4F41E066E00E94C9005F
S11302D080917400813041F58981811125C080911C
S11302E09300811106C081E08093930010929200E4
S11302F01BC010929300109292000E9463000E940F
S11303004F0088B340E067E00E94820041E067E06C
S113031082E00E94810441E067E083E00E9481045E
S113032010929100109290008981809374000F9034
S1130330DF91CF9108950F931F93CF93DF9300D054
S1130340CDB7DEB78BB39E012F5F3F4F41E064E032
S11303500E94C9008BB39E012E5F3F4F41E065E0D0
S11303600E94C90080917300813049F5898181110F
S113037026C08091920081110DC081E0809392008B
S11303800E94520160937500709376008093770009
S113039090937800609162006B3438F46B5F6093E3
S11303A0620080E090E00E9499050E9452016093EF
S11303B07500709376008093770090937800809115
S11303C07200813049F58A81811126C080919200A2
S11303D081110DC081E0809392000E9452016093CC
S11303E07500709376008093770090937800609105
S11303F06200643238F065506093620080E090E0FF
S11304000E9499050E9452016093750070937600D2
S11304108093770090937800809192008130B9F4B2
S11304200E9452010091750010917600209177008E
S113043030917800DC01CB01801B910BA20BB30B34
S113044088389341A105B10510F01092920089817A
S1130450809373008A81809372000F900F90DF91D4
S1130460CF911F910F910895CF92DF92EF92FF9257
S11304700E9452016B017C0180919300811106C09E
S113048088B340E067E00E94820061C0209161006F
S113049030E08091620090E0AC014550510924178E
S11304A0350754F40E944F000E945D0081E0809360
S11304B091001092900016C005968217930754F489
S11304C00E9463000E9449001092910081E0809391
S11304D0900008C00E9463000E944F001092910097
S11304E01092900080919100813011F580916E00FE
S11304F090916F00A0917000B0917100A7019601D6
S1130500281B390B4A0B5B0BDA01C901883E934067
S1130510A105B105E0F0C0926E00D0926F00E092A8
S11305207000F092710088B367E00E948F000FC0E2
S113053080919000813031F488B340E067E00E94FC
S1130540750005C088B340E067E00E948200FF9018
S1130550EF90DF90CF900895CF92DF92EF92FF92C9
S11305600F931F930E9452012091930021110BC0FD
S113057041E067E082E00E94810441E067E083E0BB
S11305800E94810468C00091790010917A00209142
S11305907B0030917C006B017C01C01AD10AE20A15
S11305A0F30A48EEC41643E0D406E104F10478F0FB
S11305B06093790070937A0080937B0090937C0021
S11305C081E090916000911180E0809360008091BF
S11305D09200813041F5809160008130C9F490919E
S11305E062006DEC969F612D112466956695669563
S11305F0262F220F822F880F880F820F192F181B86
S113060081E00E94A500612F82E00E94A50023C022
S113061041E067E082E00E94810441E067E083E01A
S11306200E94810418C0909161006DEC969F612D29
S11306301124669566956695262F220F822F880FC2
S1130640880F820F192F181B81E00E94A500612FCB
S113065082E00E94A5001F910F91FF90EF90DF9020
S1130660CF900895CF92DF92EF92FF920F931F9352
S1130670CF93DF9300D0CDB7DEB70E945201009133
S11306807D0010917E0020917F00309180006B01ED
S11306907C01C01AD10AE20AF30A970186010436E2
S11306A011052105310508F448C060937D0070935D
S11306B07E0080937F0090938000BE016F5F7F4F28
S11306C080E00E94F70329813A81A4EFB1E00E94FF
S11306D00406AB01BC01032E3AE076956795579565
S11306E047953A95D1F7302D8091850090E0FC0133
S11306F0EA57FF4F408301966AE070E00E94CE05FE
S11307008093850080E040E050E0BA010AC0E82F01
S1130710F0E0EA57FF4F9081490F511D611D711D93
S11307208F5F8A30A0F3CB01BA012AE030E040E0C9
S113073050E00E94E205209361000F900F90DF913A
S1130740CF911F910F91FF90EF90DF90CF9008957C
S11307508091930008950E94FC000E942D010E9444
S11307605B010E94A803813041F40E949B010E9416
S113077032030E9434020E94AC028FE99FE0019789
S1130780F1F700C00000E9CF813021F050F0823051
S113079079F014C087B18F7B87B987B18F7787B918
S11307A00DC087B1806487B987B18F7787B906C0D8
S11307B087B1806487B987B1806887B987B18F7D35
S11307C087B986B1806486B986B1877F86B986B1D8
S11307D08F7D86B986B1816086B986B1826086B91B
S11307E086B1846086B986B1806886B908958032FE
S11307F0B0F46115710599F097B1907E97B997B1EE
S1130800892B87B986B1806486B9349BFECF86B1C3
S1130810806186B984B195B1FB0191838083089589
S11308204423B9F1413009F06BC0813089F028F0DC
S11308308230C9F0833011F108952AB381E090E049
S113084002C0880F991F6A95E2F7822B8ABB08952C
S113085027B381E090E002C0880F991F6A95E2F700
S1130860822B87BB089524B381E090E002C0880FF7
S1130870991F6A95E2F7822B84BB089521B381E026
S113088090E002C0880F991F6A95E2F7822B81BB22
S11308900895813091F028F08230D9F0833029F125
S11308A008952AB381E090E002C0880F991F6A95E9
S11308B0E2F7809582238ABB089527B381E090E014
S11308C002C0880F991F6A95E2F78095822387BB3F
S11308D0089524B381E090E002C0880F991F6A95BF
S11308E0E2F78095822384BB089521B381E090E0F0
S11308F002C0880F991F6A95E2F78095822381BB15
S11309000895442319F04130C9F10895813091F0DC
S113091028F08230D9F0833029F108952BB381E097
S113092090E002C0880F991F6A95E2F780958223B0
S11309308BBB089528B381E090E002C0880F991F13
S11309406A95E2F78095822388BB089525B381E0F8
S113095090E002C0880F991F6A95E2F78095822380
S113096085BB089522B381E090E002C0880F991FEF
S11309706A95E2F78095822382BB0895813089F0DD
S113098028F08230C9F0833011F108952BB381E04F
S113099090E002C0880F991F6A95E2F7822B8BBB07
S11309A0089528B381E090E002C0880F991F6A95EA
S11309B0E2F7822B88BB089525B381E090E002C062
S11309C0880F991F6A95E2F7822B85BB089522B39D
S11309D081E090E002C0880F991F6A95E2F7822BAC
S11309E082BB0895813089F028F08230C9F08330C9
S11309F011F108952BB381E090E002C0880F991F94
S1130A006A95E2F782278BBB089528B381E090E0D2
S1130A1002C0880F991F6A95E2F7822788BB089560
S1130A2025B381E090E002C0880F991F6A95E2F730
S1130A30822785BB089522B381E090E002C0880F2D
S1130A40991F6A95E2F7822782BB08958430C0F526
S1130A506830B0F54115510599F1813089F028F0DD
S1130A608230C9F0833011F1089589B390E002C057
S1130A70959587956A95E2F78170FA0180830895C8
S1130A8086B390E002C0959587956A95E2F78170E8
S1130A90FA018083089583B390E002C09595879509
S1130AA06A95E2F78170FA018083089580B390E03B
S1130AB002C0959587956A95E2F78170FA01808363
S1130AC008956623B1F0613019F5813049F028F0BA
S1130AD0823049F0833051F008958FEF8ABB089536
S1130AE08FEF87BB08958FEF84BB08958FEF81BB91
S1130AF00895813041F028F0823039F0833039F0A4
S1130B0008951ABA089517BA089514BA089511BA2F
S1130B100895813041F028F0823039F0833039F083
S1130B2008956BBB089568BB089565BB089562BBC7
S1130B300895E199FECF9FBB8EBB6DBB8CB38460DF
S1130B408CBB8CB382608CBB08959FBB8EBB8CB373
S1130B5081608CBB8DB3FB018083089583B78F7B49
S1130B6083BF83B7886083BF89EF8CBF089583B741
S1130B70816083BF83B7826083BF83B78B7F83BF6A
S1130B800895FC0198B791FB882780F9309709F004
S1130B908083089588B7826088BF089597FB072EE5
S1130BA016F4009407D077FD09D00E94130607FCC1
S1130BB005D03EF4909581959F4F08957095619569
S1130BC07F4F0895A1E21A2EAA1BBB1BFD010DC085
S1130BD0AA1FBB1FEE1FFF1FA217B307E407F507E9
S1130BE020F0A21BB30BE40BF50B661F771F881FC5
S1130BF0991F1A9469F760957095809590959B015B
S1130C00AC01BD01CF010895A29FB001B39FC00103
S1130C10A39F700D811D1124911DB29F700D811D24
S1130C201124911D0895AA1BBB1B51E107C0AA1FE3
S1130C30BB1FA617B70710F0A61BB70B881F991F79
S1130C405A95A9F780959095BC01CD010895F89423
S1050C50FFCFD0
S1110C52013C3C3F065B4F666D7D077F6F00E3
S9030000FC
